:100000000C945B000C9478000C9478000C947800AD
:100010000C9478000C9478000C9478000C94780080
:100020000C9478000C9478000C9478000C94780070
:100030000C9478000C9478000C9478000C94780060
:100040000C9478000C9478000C9478000C94780050
:100050000C947800BB00D400D400D400D400D400A9
:10006000D4009300D400D400D400D400D400A7005E
:100070008E00A200B60089009D00B100D400980057
:10008000AC00D400D400D400D400D400D400D400F8
:10009000D400D400C500CA00CF00D400D400D400DE
:1000A000D400D400D400C00054056C059805B705F1
:1000B000E205ED050C0611241FBECFE5D4E0DEBF3E
:1000C000CDBF13E0A0E6B0E0E2E8F4E102C00590A5
:1000D0000D92AA35B107D9F723E0AAE5B3E001C034
:1000E0001D92A636B207E1F70E94D2070C943F0A90
:1000F0000C94000017BA80EF88BB089590E0FC01D3
:10010000B397EA32F10508F04FC0E65DFF4F0C945B
:10011000250A20E030E041E050E04AC020E030E035
:1001200042E050E045C020E030E043E050E040C015
:1001300021E030E040E050E03BC021E030E041E031
:1001400050E036C021E030E042E050E031C021E034
:1001500030E043E050E02CC022E030E040E050E0EE
:1001600027C022E030E041E050E022C022E030E051
:1001700042E050E01DC022E030E043E050E018C013
:1001800023E030E040E050E013C023E030E041E005
:1001900050E00EC023E030E042E050E009C023E030
:1001A00030E043E050E004C020E030E040E050E0C8
:1001B000BA01C9010895CF93DF93CDB7DEB7609739
:1001C0000FB6F894DEBF0FBECDBF20E1E6E7F0E04A
:1001D000DE01119601900D922A95E1F7880F991F83
:1001E000880F991F21E030E02C0F3D1F820F931FD5
:1001F000FC01E60FF71F808160960FB6F894DEBF12
:100200000FBECDBFDF91CF910895CF93DF93CDB7D0
:10021000DEB760970FB6F894DEBF0FBECDBF20E10A
:10022000E6E8F0E0DE01119601900D922A95E1F7E3
:10023000880F991FE1E0F0E0EC0FFD1FE80FF91FB8
:100240008081918160960FB6F894DEBF0FBECDBF5E
:10025000DF91CF910895CF92DF92EF92FF920F93AB
:100260001F93CF93E12CF12CCC24C394D12CC70144
:1002700004960E940501960102C0220F331F8A9541
:10028000E2F727BB30E53A95F1F700E010E0C6B39E
:10029000C8010E9405012C2F30E002C0359527953A
:1002A0008A95E2F720FD06C017BAB701C8010E947F
:1002B000DB000EC00F5F1F4F0430110541F78FEFB9
:1002C000E81AF80A24E0E216F10489F617BA84E283
:1002D000CF911F910F91FF90EF90DF90CF900895F5
:1002E0000E942B0190916400891322C08432E9F1AD
:1002F0002091600030916100232B91F4E0E6F0E062
:10030000228133812F5F3F4F33832283243631058F
:1003100074F121E030E03093610020936000089593
:1003200084E690E0909363008093620084E20895F5
:100330002091600030916100232B81F0E0E6F0E035
:10034000228133812150310933832283121613060F
:1003500084F011821082848380E20895E0E6F0E068
:1003600013821282848384E2089584E2089584E2F1
:10037000089584E20895CF92DF92EF92FF92CF9397
:100380000E947E006B017C01C70104960E9405015A
:1003900021E030E002C0220F331F8A95E2F727BB2D
:1003A00080E58A95F1F7C6B3C6010E9405012C2F9E
:1003B00030E002C0359527958A95E2F720FD04C00C
:1003C00017BA81E090E003C017BA80E090E0CF91C7
:1003D000FF90EF90DF90CF900895CF93C82F8C2F90
:1003E0000E94BB01892BD9F3CF910895AD9A82E089
:1003F0008A95F1F700C0AD980895CF93C82F662372
:1004000011F0AF9A01C0AF98AE98A49AA39AA29A9D
:10041000A19AA998AA98AB98AC98CC230CF4A99A65
:10042000C6FDAA9AC5FDAB9AC4FDAC9A0E94F6011E
:10043000A998AA98AB98AC98C3FDA99AC2FDAA9AAC
:10044000C1FDAB9AC0FDAC9A0E94F601AC9AAB9A82
:10045000AA9AA99ACF910895882311F0AF9A01C062
:10046000AF98AE9AA498A398A298A198AD9A82E06A
:100470008A95F1F700C09C9B02C080E101C080E03A
:100480009B9980629A99806499998068AD9892E06E
:100490009A95F1F700C0AD9A92E09A95F1F700C0F5
:1004A0009C9981609B9982609A99846099998860EF
:1004B000AD98089580E00E942C028823DCF38AE046
:1004C0008A95F1F700C080E00E942C020895CF9336
:1004D000C82F0E945A0260E08C2F0E94FD01CF912C
:1004E0000895611104C080580E94670208958054E5
:1004F0000E946702089581E00E9467020895CF93E9
:10050000C82F0E945A02CA3049F4803410F080E0AB
:1005100001C080E480580E94670204C061E08C2F13
:100520000E94FD01CF910895CF93DF93EC012196B6
:10053000FC018081882329F00E947F02899181112A
:10054000FBCFDF91CF910895CF93C82FA79AA69A9A
:10055000A59AA49AA39AA29AA19A8FEF9CE70197D1
:10056000F1F700C00000AB9AAC9A0E94F6018FE050
:1005700097E20197F1F700C000000E94F6019AEAA5
:100580009A95F1F700C00E94F6018AEA8A95F1F780
:1005900000C0AC980E94F6019AEA9A95F1F700C063
:1005A00088E20E94670288E00E9467020E947B0244
:1005B00086E00E9467028C2F0E946702CF91089507
:1005C000CF92DF92EF92FF92CF93DF93EA016B011C
:1005D0007C01E894F7F8C701B6010E94E008362FC5
:1005E000272F1C161D069CF4EAE0F0E002C0362F0F
:1005F000272F832F922FBF010E94110A2197B9F74D
:10060000832F922F6AE070E00E94110A32C09E018F
:100610002D5F3F4F2330310550F5072E000C880B1E
:10062000990B0E9418099B01AC01C701B6010E94F9
:10063000730820E030E04AE754E40E94A4090E94D5
:10064000E008362F272F2496EAE0F0E002C0362F8C
:10065000272F832F922FBF010E94110A2197B9F7EC
:10066000832F922F6AE070E00E94110A02C080E09E
:1006700090E0DF91CF91FF90EF90DF90CF900895C1
:10068000CF93DF930E947B028CE00E946702C4E05C
:10069000D0E060E080E00E94710286E990E00E9474
:1006A000940261E080E00E94710287EA90E00E947B
:1006B00094022FEF80E792E0215080409040E1F7D4
:1006C00000C0000060E080E00E94710288EB90E0D2
:1006D0000E94940261E080E00E94710289EC90E047
:1006E0000E9494022FEF80E792E0215080409040DA
:1006F000E1F700C0000060E080E00E94710285E543
:1007000091E00E9494028DEC0E947F028AED90E0BD
:100710000E9494028DEC0E947F0261E080E00E94C2
:10072000710282EE90E00E9494022FEF80E792E047
:10073000215080409040E1F700C0000060E080E080
:100740000E94710283EF90E00E94940261E080E0D9
:100750000E94710284E091E00E9494022FEF80E7F2
:1007600092E0215080409040E1F700C0000060E03E
:1007700080E00E94710286E990E00E94940261E0AC
:1007800080E00E94710285E191E00E9494022FEFC7
:1007900080E792E0215080409040E1F700C00000E7
:1007A00060E080E00E94710288EB90E00E94940279
:1007B00061E080E00E94710286E291E00E94940272
:1007C0002FEF80E792E0215080409040E1F700C099
:1007D000000060E080E00E94710285E591E00E94E7
:1007E00094028DEC0E947F028AED90E00E949402B8
:1007F0008DEC0E947F0261E080E00E94710287E33D
:1008000091E00E9494022FEF80E792E02150804017
:100810009040E1F700C0000060E080E00E947102BB
:1008200083EF90E00E94940261E080E00E947102F8
:1008300088E491E00E9494022FEF80E792E021503B
:1008400080409040E1F700C00000219709F021CFDF
:100850008FE00E946702DF91CF9108958DE090E0D4
:10086000909375008093740085E090E090937300FE
:1008700080937200E5E6F0E0108281E081831282CD
:1008800013821482158216821782108610925F03DB
:1008900010925E0310925D0310925C0310925B0352
:1008A00010925A0381E090E090936F0080936E0065
:1008B0009093710080937000109261031092600316
:1008C000E2E6F3E010821182128213820E9440035A
:1008D0000E947B0261E080E00E94710289E591E064
:1008E0000E9494026091700070917100072E000CBC
:1008F000880B990B0E94180942E050E00E94E00228
:10090000805D0E947F026091700070917100072EDF
:10091000000C880B990B0E94180941E050E00E94DE
:10092000E002805D0E947F0261E089E00E94710226
:100930008DE591E00E9494026091720070917300C5
:10094000072E000C880B990B0E94180942E050E01A
:100950000E94E002805D0E947F02609172007091AF
:100960007300072E000C880B990B0E94180941E0B8
:1009700050E00E94E002805D0E947F0260E080E023
:100980000E9471020895CF93DF930E947B028CE056
:100990000E946702C5E0D0E083E691E00E949402E5
:1009A0002FEF81EE94E0215080409040E1F700C0AD
:1009B00000000E947B022FEF81EE94E021508040E6
:1009C0009040E1F700C00000219731F784E791E003
:1009D0000E9494022FEF80E792E0215080409040E7
:1009E000E1F700C0000083E20E94ED018FE00E9469
:1009F00067020E942E04DF91CF9108950F931F93F9
:100A0000CF93DF938C010E947B028CE00E946702EF
:100A1000C5E0D0E08EE891E00E9494022FEF81EED5
:100A200094E0215080409040E1F700C000000E9417
:100A30007B022FEF81EE94E0215080409040E1F75F
:100A400000C00000219731F7C8010E9494022FEFE7
:100A500080E792E0215080409040E1F700C0000024
:100A600083E20E94ED018FE00E9467020E942E0443
:100A7000DF91CF911F910F910895FC01EB59FF4F2A
:100A80002081222339F08FE991E00E94FE0481E069
:100A900090E00895FC013197E730F10508F0D6C0E9
:100AA000EC5AFF4F0C94250A20915E0330915F03AE
:100AB000232B39F080EC91E00E94FE0481E090E06D
:100AC000089520916E0030916F002F5F3F4F30935B
:100AD0006F0020936E00BAC020915E0330915F03D7
:100AE000232B39F080EE91E00E94FE0481E090E03B
:100AF000089520915C0330915D03232B39F482E04B
:100B000092E00E94FE0481E090E0089520916D0043
:100B1000211107C084E292E00E94FE0481E090E08F
:100B2000089521E030E030935B0320935A038EC098
:100B300020916D00211107C084E292E00E94FE0422
:100B400081E090E0089520915E0330915F03232BB4
:100B500039F080EC91E00E94FE0481E090E008957D
:100B600021E030E030935D0320935C036FC020915F
:100B70005E0330915F03232B39F080EC91E00E94FB
:100B8000FE0481E090E008952091660021110CC0E0
:100B900020916700211108C020916800211104C034
:100BA00020916900222339F086E492E00E94FE043D
:100BB00081E090E0089521E030E030935F032093DE
:100BC0005E0344C020916E0030916F002F5F3F4F55
:100BD00030936F0020936E0039C020915C033091F8
:100BE0005D03232B39F482E092E00E94FE0481E051
:100BF00090E0089520916D00211107C084E292E0F9
:100C00000E94FE0481E090E0089521E030E03093FE
:100C10005B0320935A031AC020915A0330915B035F
:100C2000232B39F488E692E00E94FE0481E090E0F4
:100C3000089520915E0330915F03232B39F485E8FA
:100C400092E00E94FE0481E090E00895FC01EB59DF
:100C5000FF4F21E0208380E090E00895FC01EB59F4
:100C6000FF4F2081211107C086EA92E00E94FE0416
:100C700081E090E0089583309105B1F13CF481303A
:100C8000910561F082309105E9F05DC085309105F4
:100C9000B1F18630910509F445C055C020916E0030
:100CA00030916F002150310930936F0020936E0016
:100CB000232B09F048C088EC92E00E94FE0481E0FA
:100CC00090E0089520916D00211107C084E292E028
:100CD0000E94FE0481E090E008952AE030E0309325
:100CE0007500209374002FC020916D0021112BC03E
:100CF00084E292E00E94FE0481E090E00895209159
:100D00006E0030916F002150310930936F002093B5
:100D10006E00232BC1F488EC92E00E94FE0481E077
:100D200090E0089520916D00211107C084E292E0C7
:100D30000E94FE0481E090E008952AE030E03093C4
:100D4000750020937400FC01EB59FF4F108280E086
:100D500090E00895E5E6F0E0818190E09C01220FAB
:100D6000331F220F331F280F391F9281492F50E064
:100D7000CA01880F991F480F591FC901840F951F79
:100D8000238134E0239F800D911D1124248134E0C0
:100D9000239F800D911D1124258130E0A901440F6E
:100DA000551F240F351F220F331F820F931F2681DB
:100DB00034E0239F800D911D1124278134E0239F6F
:100DC000800D911D1124208534E0239F800D911DFD
:100DD000112408958091600390916103039729F095
:100DE00084EE92E00E94FE040895909162038CEBE1
:100DF000890F823060F4209163032C3411F0233486
:100E000031F4809164033FEC380F343028F082E0F5
:100E100093E00E94FE040895953481F42C3439F453
:100E200090E0C0970E943D05892BC1F0089590E0A5
:100E30008C970E943D05892B89F008952C3439F454
:100E400090E0C0970E942E06892B41F0089590E013
:100E50008C970E942E06892B09F0A3C00E94AA0637
:100E6000909373008093720020917400309175000C
:100E7000281739072CF480E293E00E94FE040895BD
:100E800080915E0390915F03892B11F010926900AD
:100E90000E94AA069093730080937200809162036F
:100EA000853459F480916303833439F48091640369
:100EB000833319F40E94C3040895809170009091C7
:100EC0007100019690937100809370000F972CF041
:100ED0008BE393E00E94FE0408950E947B0261E090
:100EE00080E00E94710289E591E00E949402609185
:100EF000700070917100072E000C880B990B0E94F6
:100F0000180942E050E00E94E002805D0E947F02EA
:100F10006091700070917100072E000C880B990B86
:100F20000E94180941E050E00E94E002805D0E94AA
:100F30007F0261E089E00E9471028DE591E00E94EC
:100F400094026091720070917300072E000C880B60
:100F5000990B0E94180942E050E00E94E002805D77
:100F60000E947F026091720070917300072E000C46
:100F7000880B990B0E94180941E050E00E94E002A2
:100F8000805D0E947F0260E080E00E94710210920A
:100F9000610310926003E2E6F3E010821182128294
:100FA000138208958FE00E94A4020E947A000E949A
:100FB00040030E947B0261E080E00E94710289E5AB
:100FC00091E00E9494026091700070917100072E70
:100FD000000C880B990B0E94180942E050E00E9417
:100FE000E002805D0E947F0260917000709171004C
:100FF000072E000C880B990B0E94180941E050E065
:101000000E94E002805D0E947F0261E089E00E9410
:1010100071028DE591E00E949402609172007091DE
:101020007300072E000C880B990B0E94180942E0F0
:1010300050E00E94E002805D0E947F026091720099
:1010400070917300072E000C880B990B0E941809F1
:1010500041E050E00E94E002805D0E947F0260E07B
:1010600080E00E947102C0E6D3E00E947001982FD8
:101070009B7F9032D1F3833219F40E94EA06F5CFB8
:101080008A32D1F48091600390916103009769F3F3
:1010900001979093610380936003FC01EE59FC4F2C
:1010A000108260E00E94710280E20E947F0260E094
:1010B00088810E947102D9CF209160033091610331
:1010C0002330310594F6F901EE59FC4F80830E94DC
:1010D0007F02809160039091610301969093610378
:1010E00080936003C2CF5058BB27AA270E948B0869
:1010F0000C946A090E945C0938F00E94630920F090
:1011000039F49F3F19F426F40C9459090EF4E09534
:10111000E7FB0C945309E92F0E947B0958F3BA1797
:10112000620773078407950720F079F4A6F50C94FD
:101130009D090EF4E0950B2EBA2FA02D0B01B901DD
:1011400090010C01CA01A0011124FF27591B99F03D
:10115000593F50F4503E68F11A16F040A22F232F49
:10116000342F4427585FF3CF469537952795A79599
:10117000F0405395C9F77EF41F16BA0B620B730B40
:10118000840BBAF09150A1F0FF0FBB1F661F771FB1
:10119000881FC2F70EC0BA0F621F731F841F48F466
:1011A000879577956795B795F7959E3F08F0B0CFEF
:1011B0009395880F08F09927EE0F979587950895D6
:1011C0000E94E7086894B1110C949E0908950E944A
:1011D000830988F09F5798F0B92F9927B751B0F03D
:1011E000E1F0660F771F881F991F1AF0BA95C9F7AB
:1011F00014C0B13091F00E949D09B1E008950C94A3
:101200009D09672F782F8827B85F39F0B93FCCF355
:10121000869577956795B395D9F73EF49095809527
:10122000709561957F4F8F4F9F4F0895E89409C047
:1012300097FB3EF490958095709561957F4F8F4F09
:101240009F4F9923A9F0F92F96E9BB279395F6951F
:10125000879577956795B795F111F8CFFAF4BB0F9D
:1012600011F460FF1BC06F5F7F4F8F4F9F4F16C001
:10127000882311F096E911C0772321F09EE8872F8B
:10128000762F05C0662371F096E8862F70E060E047
:101290002AF09A95660F771F881FDAF7880F9695C0
:1012A000879597F9089597F99F6780E870E060E067
:1012B00008959FEF80EC089500240A9416161706EF
:1012C00018060906089500240A9412161306140637
:1012D00005060895092E0394000C11F4882352F09A
:1012E000BB0F40F4BF2B11F460FF04C06F5F7F4F52
:1012F0008F4F9F4F089557FD9058440F551F59F039
:101300005F3F71F04795880F97FB991F61F09F3FF2
:1013100079F087950895121613061406551FF2CF1B
:101320004695F1DF08C0161617061806991FF1CF6B
:1013300086957105610508940895E894BB27662792
:101340007727CB0197F908950E94B7090C946A0991
:101350000E945C0938F00E94630920F0952311F087
:101360000C9453090C94590911240C949E090E9461
:101370007B0970F3959FC1F3950F50E0551F629F55
:10138000F001729FBB27F00DB11D639FAA27F00DDE
:10139000B11DAA1F649F6627B00DA11D661F829F05
:1013A0002227B00DA11D621F739FB00DA11D621FEA
:1013B000839FA00D611D221F749F3327A00D611D07
:1013C000231F849F600D211D822F762F6A2F1124E9
:1013D0009F5750409AF0F1F088234AF0EE0FFF1F1C
:1013E000BB1F661F771F881F91505040A9F79E3F73
:1013F000510580F00C9453090C949E095F3FE4F36F
:10140000983ED4F3869577956795B795F795E795C8
:101410009F5FC1F7FE2B880F911D9695879597F9D1
:10142000089597FB072E16F4009407D077FD09D096
:101430000E942B0A07FC05D03EF4909581959F4FA2
:101440000895709561957F4F0895EE0FFF1F0590E9
:10145000F491E02D0994AA1BBB1B51E107C0AA1F00
:10146000BB1FA617B70710F0A61BB70B881F991F45
:101470005A95A9F780959095BC01CD010895F894EF
:02148000FFCF9C
:101482000000000024000100000000000000010034
:10149200010005000D003738394C343536433132FE
:1014A20033442A30234507000600050004000300E8
:1014B2000200010000002020202F4C4F4144494EE1
:1014C200472F20202020002020202020202E2020F6
:1014D20020202020202020002020202D4C4F41447D
:1014E200494E472D20202020002020202020202E81
:1014F2002E2020202020202020004C4F4144494E05
:1015020047002020202020202E2E2E2020202020A8
:101512002020002020207C4C4F4144494E477C2013
:10152200202020002020202020202E2E2E2E2020A1
:101532002020202000202020202020202E2E2E209F
:1015420020202020200020202020202020202E2E9D
:1015520020202020202000202020202020202020A9
:101562002E2020202020200020202020202020208B
:1015720020202020202020200050433A00414D50BE
:10158200533A002D4C4556454C20434C454152455B
:1015920044212D00476F6F64206A6F622E0A436FE9
:1015A2006E67726174756C6174696F6E73002D2D54
:1015B2002D2D2D4552524F522D2D2D2D2D2D0043C7
:1015C200616E6E6F7420656E61626C652061200AC7
:1015D200656E61626C65642064657669636521008D
:1015E2004C756E6172204D6F64756C652069732055
:1015F2000A6E6F74206176616C6961626C652100AC
:101602004C756E6172204D6F64756C652069732034
:101612000A6E6F74206176616C6961626C6521206B
:101622002000466565646261636B206C6F6F702099
:1016320069730A6E6F742063616C696272617465AA
:10164200642120004E617669676174696F6E206360
:101652006F6D702E0A756E726573706F6E73697638
:101662006521202020004C756E6172204D6F6475DB
:101672006C65206973200A63757272656E746C7989
:1016820020696E207573650052652D656E747279DE
:10169200207069746368200A6E6F7420616C6967D8
:1016A2006E656421004C756E6172204D6F64756CBD
:1016B20065206973200A7374696C6C2061747461AB
:1016C20063686564210043616E6E6F7420646973A0
:1016D20061626C6520610A64697361626C65642091
:1016E2006465766963652100464154414C20455248
:1016F200524F522E0A55706C696E6B206661696C8E
:101702006564210053594E544158204552524F525C
:101712000A436F646520696E636F6D706C657465F2
:10172200210053594E544158204552524F520A55A6
:101732006E6B6E6F776E20636F6D6D616E642100EC
:101742004F5645524C4F414421200A426174746500
:101752007279206661696C6564210050726F6365FD
:101762006475726520746F6F0A6C6F6E6720746F98
:0A177200207472616E736D697400DB
:00000001FF
